{
  "contractName": "Proposal",
  "abi": [
    {
      "inputs": [
        {
          "internalType": "address",
          "name": "_admin",
          "type": "address"
        },
        {
          "internalType": "address",
          "name": "_proposer",
          "type": "address"
        },
        {
          "internalType": "address[]",
          "name": "_tokens",
          "type": "address[]"
        },
        {
          "internalType": "uint256[]",
          "name": "_amounts",
          "type": "uint256[]"
        },
        {
          "internalType": "uint256",
          "name": "_startDate",
          "type": "uint256"
        },
        {
          "internalType": "uint256",
          "name": "_endDate",
          "type": "uint256"
        },
        {
          "internalType": "uint256",
          "name": "_period",
          "type": "uint256"
        },
        {
          "internalType": "uint256",
          "name": "_optionPrice",
          "type": "uint256"
        },
        {
          "internalType": "uint256",
          "name": "_optionPremium",
          "type": "uint256"
        },
        {
          "internalType": "uint256",
          "name": "_optionInterval",
          "type": "uint256"
        },
        {
          "internalType": "uint256",
          "name": "_commission",
          "type": "uint256"
        },
        {
          "internalType": "string",
          "name": "_name",
          "type": "string"
        },
        {
          "internalType": "string",
          "name": "_symbol",
          "type": "string"
        },
        {
          "internalType": "address",
          "name": "daiAddress",
          "type": "address"
        }
      ],
      "stateMutability": "nonpayable",
      "type": "constructor"
    },
    {
      "anonymous": false,
      "inputs": [
        {
          "indexed": true,
          "internalType": "address",
          "name": "owner",
          "type": "address"
        },
        {
          "indexed": true,
          "internalType": "address",
          "name": "spender",
          "type": "address"
        },
        {
          "indexed": false,
          "internalType": "uint256",
          "name": "value",
          "type": "uint256"
        }
      ],
      "name": "Approval",
      "type": "event"
    },
    {
      "anonymous": false,
      "inputs": [
        {
          "indexed": true,
          "internalType": "address",
          "name": "from",
          "type": "address"
        },
        {
          "indexed": true,
          "internalType": "address",
          "name": "to",
          "type": "address"
        },
        {
          "indexed": false,
          "internalType": "uint256",
          "name": "value",
          "type": "uint256"
        }
      ],
      "name": "Transfer",
      "type": "event"
    },
    {
      "inputs": [
        {
          "internalType": "address",
          "name": "owner",
          "type": "address"
        },
        {
          "internalType": "address",
          "name": "spender",
          "type": "address"
        }
      ],
      "name": "allowance",
      "outputs": [
        {
          "internalType": "uint256",
          "name": "",
          "type": "uint256"
        }
      ],
      "stateMutability": "view",
      "type": "function"
    },
    {
      "inputs": [
        {
          "internalType": "address",
          "name": "spender",
          "type": "address"
        },
        {
          "internalType": "uint256",
          "name": "amount",
          "type": "uint256"
        }
      ],
      "name": "approve",
      "outputs": [
        {
          "internalType": "bool",
          "name": "",
          "type": "bool"
        }
      ],
      "stateMutability": "nonpayable",
      "type": "function"
    },
    {
      "inputs": [
        {
          "internalType": "address",
          "name": "account",
          "type": "address"
        }
      ],
      "name": "balanceOf",
      "outputs": [
        {
          "internalType": "uint256",
          "name": "",
          "type": "uint256"
        }
      ],
      "stateMutability": "view",
      "type": "function"
    },
    {
      "inputs": [],
      "name": "decimals",
      "outputs": [
        {
          "internalType": "uint8",
          "name": "",
          "type": "uint8"
        }
      ],
      "stateMutability": "view",
      "type": "function"
    },
    {
      "inputs": [
        {
          "internalType": "address",
          "name": "spender",
          "type": "address"
        },
        {
          "internalType": "uint256",
          "name": "subtractedValue",
          "type": "uint256"
        }
      ],
      "name": "decreaseAllowance",
      "outputs": [
        {
          "internalType": "bool",
          "name": "",
          "type": "bool"
        }
      ],
      "stateMutability": "nonpayable",
      "type": "function"
    },
    {
      "inputs": [
        {
          "internalType": "address",
          "name": "spender",
          "type": "address"
        },
        {
          "internalType": "uint256",
          "name": "addedValue",
          "type": "uint256"
        }
      ],
      "name": "increaseAllowance",
      "outputs": [
        {
          "internalType": "bool",
          "name": "",
          "type": "bool"
        }
      ],
      "stateMutability": "nonpayable",
      "type": "function"
    },
    {
      "inputs": [],
      "name": "name",
      "outputs": [
        {
          "internalType": "string",
          "name": "",
          "type": "string"
        }
      ],
      "stateMutability": "view",
      "type": "function"
    },
    {
      "inputs": [],
      "name": "poolTokenSupply",
      "outputs": [
        {
          "internalType": "uint256",
          "name": "",
          "type": "uint256"
        }
      ],
      "stateMutability": "view",
      "type": "function"
    },
    {
      "inputs": [],
      "name": "proposer",
      "outputs": [
        {
          "internalType": "address",
          "name": "",
          "type": "address"
        }
      ],
      "stateMutability": "view",
      "type": "function"
    },
    {
      "inputs": [],
      "name": "symbol",
      "outputs": [
        {
          "internalType": "string",
          "name": "",
          "type": "string"
        }
      ],
      "stateMutability": "view",
      "type": "function"
    },
    {
      "inputs": [],
      "name": "totalSupply",
      "outputs": [
        {
          "internalType": "uint256",
          "name": "",
          "type": "uint256"
        }
      ],
      "stateMutability": "view",
      "type": "function"
    },
    {
      "inputs": [
        {
          "internalType": "address",
          "name": "recipient",
          "type": "address"
        },
        {
          "internalType": "uint256",
          "name": "amount",
          "type": "uint256"
        }
      ],
      "name": "transfer",
      "outputs": [
        {
          "internalType": "bool",
          "name": "",
          "type": "bool"
        }
      ],
      "stateMutability": "nonpayable",
      "type": "function"
    },
    {
      "inputs": [
        {
          "internalType": "address",
          "name": "sender",
          "type": "address"
        },
        {
          "internalType": "address",
          "name": "recipient",
          "type": "address"
        },
        {
          "internalType": "uint256",
          "name": "amount",
          "type": "uint256"
        }
      ],
      "name": "transferFrom",
      "outputs": [
        {
          "internalType": "bool",
          "name": "",
          "type": "bool"
        }
      ],
      "stateMutability": "nonpayable",
      "type": "function"
    },
    {
      "inputs": [
        {
          "internalType": "address[]",
          "name": "_tokens",
          "type": "address[]"
        },
        {
          "internalType": "uint256[]",
          "name": "_amounts",
          "type": "uint256[]"
        }
      ],
      "name": "enterPool",
      "outputs": [],
      "stateMutability": "nonpayable",
      "type": "function"
    },
    {
      "inputs": [
        {
          "internalType": "uint256",
          "name": "daiAmount",
          "type": "uint256"
        }
      ],
      "name": "sellOption",
      "outputs": [],
      "stateMutability": "nonpayable",
      "type": "function"
    },
    {
      "inputs": [],
      "name": "finalizePool",
      "outputs": [],
      "stateMutability": "nonpayable",
      "type": "function"
    },
    {
      "inputs": [],
      "name": "claimPremium",
      "outputs": [],
      "stateMutability": "nonpayable",
      "type": "function"
    },
    {
      "inputs": [],
      "name": "liquidatePool",
      "outputs": [],
      "stateMutability": "nonpayable",
      "type": "function"
    },
    {
      "inputs": [],
      "name": "exerciseOption",
      "outputs": [],
      "stateMutability": "nonpayable",
      "type": "function"
    },
    {
      "inputs": [],
      "name": "getProposer",
      "outputs": [
        {
          "internalType": "address",
          "name": "",
          "type": "address"
        }
      ],
      "stateMutability": "view",
      "type": "function"
    },
    {
      "inputs": [],
      "name": "getoptionBuyers",
      "outputs": [
        {
          "internalType": "address[]",
          "name": "",
          "type": "address[]"
        }
      ],
      "stateMutability": "view",
      "type": "function"
    },
    {
      "inputs": [],
      "name": "getPeriod",
      "outputs": [
        {
          "internalType": "uint256",
          "name": "",
          "type": "uint256"
        }
      ],
      "stateMutability": "view",
      "type": "function"
    },
    {
      "inputs": [],
      "name": "getOptionPrice",
      "outputs": [
        {
          "internalType": "uint256",
          "name": "",
          "type": "uint256"
        }
      ],
      "stateMutability": "view",
      "type": "function"
    },
    {
      "inputs": [],
      "name": "getOptionPremium",
      "outputs": [
        {
          "internalType": "uint256",
          "name": "",
          "type": "uint256"
        }
      ],
      "stateMutability": "view",
      "type": "function"
    },
    {
      "inputs": [],
      "name": "getOptionInterval",
      "outputs": [
        {
          "internalType": "uint256",
          "name": "",
          "type": "uint256"
        }
      ],
      "stateMutability": "view",
      "type": "function"
    },
    {
      "inputs": [],
      "name": "getStartDate",
      "outputs": [
        {
          "internalType": "uint256",
          "name": "",
          "type": "uint256"
        }
      ],
      "stateMutability": "view",
      "type": "function"
    },
    {
      "inputs": [],
      "name": "getEndDate",
      "outputs": [
        {
          "internalType": "uint256",
          "name": "",
          "type": "uint256"
        }
      ],
      "stateMutability": "view",
      "type": "function"
    },
    {
      "inputs": [],
      "name": "getIsOpen",
      "outputs": [
        {
          "internalType": "bool",
          "name": "",
          "type": "bool"
        }
      ],
      "stateMutability": "view",
      "type": "function"
    },
    {
      "inputs": [],
      "name": "getAmounts",
      "outputs": [
        {
          "internalType": "uint256[]",
          "name": "",
          "type": "uint256[]"
        }
      ],
      "stateMutability": "view",
      "type": "function"
    }
  ],
  "bytecode": "0x60806040526001601360006101000a81548160ff0219169083151502179055503480156200002c57600080fd5b5060405162003ed438038062003ed483398181016040526101c08110156200005357600080fd5b810190808051906020019092919080519060200190929190805160405193929190846401000000008211156200008857600080fd5b838201915060208201858111156200009f57600080fd5b8251866020820283011164010000000082111715620000bd57600080fd5b8083526020830192505050908051906020019060200280838360005b83811015620000f6578082015181840152602081019050620000d9565b50505050905001604052602001805160405193929190846401000000008211156200012057600080fd5b838201915060208201858111156200013757600080fd5b82518660208202830111640100000000821117156200015557600080fd5b8083526020830192505050908051906020019060200280838360005b838110156200018e57808201518184015260208101905062000171565b505050509050016040526020018051906020019092919080519060200190929190805190602001909291908051906020019092919080519060200190929190805190602001909291908051906020019092919080516040519392919084640100000000821115620001fe57600080fd5b838201915060208201858111156200021557600080fd5b82518660018202830111640100000000821117156200023357600080fd5b8083526020830192505050908051906020019080838360005b83811015620002695780820151818401526020810190506200024c565b50505050905090810190601f168015620002975780820380516001836020036101000a031916815260200191505b5060405260200180516040519392919084640100000000821115620002bb57600080fd5b83820191506020820185811115620002d257600080fd5b8251866001820283011164010000000082111715620002f057600080fd5b8083526020830192505050908051906020019080838360005b838110156200032657808201518184015260208101905062000309565b50505050905090810190601f168015620003545780820380516001836020036101000a031916815260200191505b5060405260200180519060200190929190505050828281600390805190602001906200038292919062000576565b5080600490805190602001906200039b92919062000576565b506012600560006101000a81548160ff021916908360ff16021790555050508d600760006101000a81548173ffffffffffffffffffffffffffffffffffffffff021916908373ffffffffffffffffffffffffffffffffffffffff1602179055508c600a60006101000a81548173ffffffffffffffffffffffffffffffffffffffff021916908373ffffffffffffffffffffffffffffffffffffffff1602179055508a600b908051906020019062000454929190620005fd565b5089600c8190555088600d8190555087600e819055508360128190555086600f819055508560108190555084601181905550606460068190555080600860006101000a81548173ffffffffffffffffffffffffffffffffffffffff021916908373ffffffffffffffffffffffffffffffffffffffff16021790555060005b8c51811015620005615760098d8281518110620004eb57fe5b60200260200101519080600181540180825580915050600190039060005260206000200160009091909190916101000a81548173ffffffffffffffffffffffffffffffffffffffff021916908373ffffffffffffffffffffffffffffffffffffffff1602179055508080600101915050620004d2565b5050505050505050505050505050506200066e565b828054600181600116156101000203166002900490600052602060002090601f016020900481019282601f10620005b957805160ff1916838001178555620005ea565b82800160010185558215620005ea579182015b82811115620005e9578251825591602001919060010190620005cc565b5b509050620005f991906200064f565b5090565b8280548282559060005260206000209081019282156200063c579160200282015b828111156200063b5782518255916020019190600101906200061e565b5b5090506200064b91906200064f565b5090565b5b808211156200066a57600081600090555060010162000650565b5090565b613856806200067e6000396000f3fe608060405234801561001057600080fd5b50600436106101cf5760003560e01c80639080780711610104578063b8b027c2116100a2578063dd62ed3e11610071578063dd62ed3e146108a2578063e96bdae51461091a578063e9790d0214610979578063f648b99e146109ad576101cf565b8063b8b027c214610700578063c00baf601461072e578063cd96f5d11461087a578063db10b64214610898576101cf565b8063a8e4fb90116100de578063a8e4fb901461062a578063a9059cbb1461065e578063b1356488146106c2578063b1b0be2f146106e0576101cf565b8063908078071461053957806395d89b4114610543578063a457c2d7146105c6576101cf565b80633d370b4e116101715780635f21d4f11161014b5780635f21d4f1146104875780635fe786c1146104a557806370a08231146104c357806378f305c61461051b576101cf565b80633d370b4e1461040057806349bc856d1461045f578063529663db1461047d576101cf565b80631ed24195116101ad5780631ed24195146102d957806323b872dd146102f7578063313ce5671461037b578063395093511461039c576101cf565b806306fdde03146101d4578063095ea7b31461025757806318160ddd146102bb575b600080fd5b6101dc6109b7565b6040518080602001828103825283818151815260200191508051906020019080838360005b8381101561021c578082015181840152602081019050610201565b50505050905090810190601f1680156102495780820380516001836020036101000a031916815260200191505b509250505060405180910390f35b6102a36004803603604081101561026d57600080fd5b81019080803573ffffffffffffffffffffffffffffffffffffffff16906020019092919080359060200190929190505050610a59565b60405180821515815260200191505060405180910390f35b6102c3610a77565b6040518082815260200191505060405180910390f35b6102e1610a81565b6040518082815260200191505060405180910390f35b6103636004803603606081101561030d57600080fd5b81019080803573ffffffffffffffffffffffffffffffffffffffff169060200190929190803573ffffffffffffffffffffffffffffffffffffffff16906020019092919080359060200190929190505050610a8b565b60405180821515815260200191505060405180910390f35b610383610b64565b604051808260ff16815260200191505060405180910390f35b6103e8600480360360408110156103b257600080fd5b81019080803573ffffffffffffffffffffffffffffffffffffffff16906020019092919080359060200190929190505050610b7b565b60405180821515815260200191505060405180910390f35b610408610c2e565b6040518080602001828103825283818151815260200191508051906020019060200280838360005b8381101561044b578082015181840152602081019050610430565b505050509050019250505060405180910390f35b610467610c86565b6040518082815260200191505060405180910390f35b610485610c90565b005b61048f610e71565b6040518082815260200191505060405180910390f35b6104ad610e7b565b6040518082815260200191505060405180910390f35b610505600480360360208110156104d957600080fd5b81019080803573ffffffffffffffffffffffffffffffffffffffff169060200190929190505050610e85565b6040518082815260200191505060405180910390f35b610523610ecd565b6040518082815260200191505060405180910390f35b610541610ed7565b005b61054b61180a565b6040518080602001828103825283818151815260200191508051906020019080838360005b8381101561058b578082015181840152602081019050610570565b50505050905090810190601f1680156105b85780820380516001836020036101000a031916815260200191505b509250505060405180910390f35b610612600480360360408110156105dc57600080fd5b81019080803573ffffffffffffffffffffffffffffffffffffffff169060200190929190803590602001909291905050506118ac565b60405180821515815260200191505060405180910390f35b610632611979565b604051808273ffffffffffffffffffffffffffffffffffffffff16815260200191505060405180910390f35b6106aa6004803603604081101561067457600080fd5b81019080803573ffffffffffffffffffffffffffffffffffffffff1690602001909291908035906020019092919050505061199f565b60405180821515815260200191505060405180910390f35b6106ca6119bd565b6040518082815260200191505060405180910390f35b6106e86119c7565b60405180821515815260200191505060405180910390f35b61072c6004803603602081101561071657600080fd5b81019080803590602001909291905050506119de565b005b6108786004803603604081101561074457600080fd5b810190808035906020019064010000000081111561076157600080fd5b82018360208201111561077357600080fd5b8035906020019184602083028401116401000000008311171561079557600080fd5b919080806020026020016040519081016040528093929190818152602001838360200280828437600081840152601f19601f820116905080830192505050505050509192919290803590602001906401000000008111156107f557600080fd5b82018360208201111561080757600080fd5b8035906020019184602083028401116401000000008311171561082957600080fd5b919080806020026020016040519081016040528093929190818152602001838360200280828437600081840152601f19601f820116905080830192505050505050509192919290505050611c4c565b005b61088261204c565b6040518082815260200191505060405180910390f35b6108a0612052565b005b610904600480360360408110156108b857600080fd5b81019080803573ffffffffffffffffffffffffffffffffffffffff169060200190929190803573ffffffffffffffffffffffffffffffffffffffff1690602001909291905050506125e8565b6040518082815260200191505060405180910390f35b61092261266f565b6040518080602001828103825283818151815260200191508051906020019060200280838360005b8381101561096557808201518184015260208101905061094a565b505050509050019250505060405180910390f35b6109816126fd565b604051808273ffffffffffffffffffffffffffffffffffffffff16815260200191505060405180910390f35b6109b5612727565b005b606060038054600181600116156101000203166002900480601f016020809104026020016040519081016040528092919081815260200182805460018160011615610100020316600290048015610a4f5780601f10610a2457610100808354040283529160200191610a4f565b820191906000526020600020905b815481529060010190602001808311610a3257829003601f168201915b5050505050905090565b6000610a6d610a66612c84565b8484612c8c565b6001905092915050565b6000600254905090565b6000600e54905090565b6000610a98848484612e83565b610b5984610aa4612c84565b610b548560405180606001604052806028815260200161374060289139600160008b73ffffffffffffffffffffffffffffffffffffffff1673ffffffffffffffffffffffffffffffffffffffff1681526020019081526020016000206000610b0a612c84565b73ffffffffffffffffffffffffffffffffffffffff1673ffffffffffffffffffffffffffffffffffffffff168152602001908152602001600020546131449092919063ffffffff16565b612c8c565b600190509392505050565b6000600560009054906101000a900460ff16905090565b6000610c24610b88612c84565b84610c1f8560016000610b99612c84565b73ffffffffffffffffffffffffffffffffffffffff1673ffffffffffffffffffffffffffffffffffffffff16815260200190815260200160002060008973ffffffffffffffffffffffffffffffffffffffff1673ffffffffffffffffffffffffffffffffffffffff1681526020019081526020016000205461320490919063ffffffff16565b612c8c565b6001905092915050565b6060600b805480602002602001604051908101604052809291908181526020018280548015610c7c57602002820191906000526020600020905b815481526020019060010190808311610c68575b5050505050905090565b6000601154905090565b6000601860003373ffffffffffffffffffffffffffffffffffffffff1673ffffffffffffffffffffffffffffffffffffffff1681526020019081526020016000205411610cdc57600080fd5b60006018603c8060115402020290506000600d54420390506000828281610cff57fe5b0490506000600f54601860003373ffffffffffffffffffffffffffffffffffffffff1673ffffffffffffffffffffffffffffffffffffffff1681526020019081526020016000205460105484020281610d5457fe5b0490506000601b60003373ffffffffffffffffffffffffffffffffffffffff1673ffffffffffffffffffffffffffffffffffffffff168152602001908152602001600020548203905060008111610e13576040517f08c379a00000000000000000000000000000000000000000000000000000000081526004018080602001828103825260108152602001807f4e6f7468696e6720746f20636c61696d0000000000000000000000000000000081525060200191505060405180910390fd5b610e1d338261328c565b80601b60003373ffffffffffffffffffffffffffffffffffffffff1673ffffffffffffffffffffffffffffffffffffffff168152602001908152602001600020600082825401925050819055505050505050565b6000600f54905090565b6000601054905090565b60008060008373ffffffffffffffffffffffffffffffffffffffff1673ffffffffffffffffffffffffffffffffffffffff168152602001908152602001600020549050919050565b6000600c54905090565b600760009054906101000a900473ffffffffffffffffffffffffffffffffffffffff1673ffffffffffffffffffffffffffffffffffffffff163373ffffffffffffffffffffffffffffffffffffffff1614610f7d576040517f08c379a000000000000000000000000000000000000000000000000000000000815260040180806020018281038252602a8152602001806137f7602a913960400191505060405180910390fd5b60005b6015805490508110156112f35760005b6009805490508110156111cc57600060098281548110610fac57fe5b9060005260206000200160009054906101000a900473ffffffffffffffffffffffffffffffffffffffff169050600060643073ffffffffffffffffffffffffffffffffffffffff166370a082316015878154811061100657fe5b9060005260206000200160009054906101000a900473ffffffffffffffffffffffffffffffffffffffff166040518263ffffffff1660e01b8152600401808273ffffffffffffffffffffffffffffffffffffffff16815260200191505060206040518083038186803b15801561107b57600080fd5b505afa15801561108f573d6000803e3d6000fd5b505050506040513d60208110156110a557600080fd5b8101908080519060200190929190505050816110bd57fe5b04600b84815481106110cb57fe5b90600052602060002001540290508173ffffffffffffffffffffffffffffffffffffffff1663a9059cbb6015868154811061110257fe5b9060005260206000200160009054906101000a900473ffffffffffffffffffffffffffffffffffffffff16836040518363ffffffff1660e01b8152600401808373ffffffffffffffffffffffffffffffffffffffff16815260200182815260200192505050602060405180830381600087803b15801561118157600080fd5b505af1158015611195573d6000803e3d6000fd5b505050506040513d60208110156111ab57600080fd5b81019080805190602001909291905050505050508080600101915050610f90565b506112e6601582815481106111dd57fe5b9060005260206000200160009054906101000a900473ffffffffffffffffffffffffffffffffffffffff163073ffffffffffffffffffffffffffffffffffffffff166370a082316015858154811061123157fe5b9060005260206000200160009054906101000a900473ffffffffffffffffffffffffffffffffffffffff166040518263ffffffff1660e01b8152600401808273ffffffffffffffffffffffffffffffffffffffff16815260200191505060206040518083038186803b1580156112a657600080fd5b505afa1580156112ba573d6000803e3d6000fd5b505050506040513d60208110156112d057600080fd5b8101908080519060200190929190505050613453565b8080600101915050610f80565b5060005b6014805490508110156117ec5760005b6009805490508110156115435760006009828154811061132357fe5b9060005260206000200160009054906101000a900473ffffffffffffffffffffffffffffffffffffffff169050600060643073ffffffffffffffffffffffffffffffffffffffff166370a082316014878154811061137d57fe5b9060005260206000200160009054906101000a900473ffffffffffffffffffffffffffffffffffffffff166040518263ffffffff1660e01b8152600401808273ffffffffffffffffffffffffffffffffffffffff16815260200191505060206040518083038186803b1580156113f257600080fd5b505afa158015611406573d6000803e3d6000fd5b505050506040513d602081101561141c57600080fd5b81019080805190602001909291905050508161143457fe5b04600b848154811061144257fe5b90600052602060002001540290508173ffffffffffffffffffffffffffffffffffffffff1663a9059cbb6014868154811061147957fe5b9060005260206000200160009054906101000a900473ffffffffffffffffffffffffffffffffffffffff16836040518363ffffffff1660e01b8152600401808373ffffffffffffffffffffffffffffffffffffffff16815260200182815260200192505050602060405180830381600087803b1580156114f857600080fd5b505af115801561150c573d6000803e3d6000fd5b505050506040513d602081101561152257600080fd5b81019080805190602001909291905050505050508080600101915050611307565b506000601860006014848154811061155757fe5b9060005260206000200160009054906101000a900473ffffffffffffffffffffffffffffffffffffffff1673ffffffffffffffffffffffffffffffffffffffff1673ffffffffffffffffffffffffffffffffffffffff168152602001908152602001600020549050600860009054906101000a900473ffffffffffffffffffffffffffffffffffffffff1673ffffffffffffffffffffffffffffffffffffffff1663a9059cbb6014848154811061160a57fe5b9060005260206000200160009054906101000a900473ffffffffffffffffffffffffffffffffffffffff16836040518363ffffffff1660e01b8152600401808373ffffffffffffffffffffffffffffffffffffffff16815260200182815260200192505050602060405180830381600087803b15801561168957600080fd5b505af115801561169d573d6000803e3d6000fd5b505050506040513d60208110156116b357600080fd5b8101908080519060200190929190505050506117de601483815481106116d557fe5b9060005260206000200160009054906101000a900473ffffffffffffffffffffffffffffffffffffffff163073ffffffffffffffffffffffffffffffffffffffff166370a082316014868154811061172957fe5b9060005260206000200160009054906101000a900473ffffffffffffffffffffffffffffffffffffffff166040518263ffffffff1660e01b8152600401808273ffffffffffffffffffffffffffffffffffffffff16815260200191505060206040518083038186803b15801561179e57600080fd5b505afa1580156117b2573d6000803e3d6000fd5b505050506040513d60208110156117c857600080fd5b8101908080519060200190929190505050613453565b5080806001019150506112f7565b506000601360006101000a81548160ff021916908315150217905550565b606060048054600181600116156101000203166002900480601f0160208091040260200160405190810160405280929190818152602001828054600181600116156101000203166002900480156118a25780601f10611877576101008083540402835291602001916118a2565b820191906000526020600020905b81548152906001019060200180831161188557829003601f168201915b5050505050905090565b600061196f6118b9612c84565b8461196a856040518060600160405280602581526020016137d260259139600160006118e3612c84565b73ffffffffffffffffffffffffffffffffffffffff1673ffffffffffffffffffffffffffffffffffffffff16815260200190815260200160002060008a73ffffffffffffffffffffffffffffffffffffffff1673ffffffffffffffffffffffffffffffffffffffff168152602001908152602001600020546131449092919063ffffffff16565b612c8c565b6001905092915050565b600a60009054906101000a900473ffffffffffffffffffffffffffffffffffffffff1681565b60006119b36119ac612c84565b8484612e83565b6001905092915050565b6000600d54905090565b6000601360009054906101000a900460ff16905090565b80600860009054906101000a900473ffffffffffffffffffffffffffffffffffffffff1673ffffffffffffffffffffffffffffffffffffffff166370a08231336040518263ffffffff1660e01b8152600401808273ffffffffffffffffffffffffffffffffffffffff16815260200191505060206040518083038186803b158015611a6857600080fd5b505afa158015611a7c573d6000803e3d6000fd5b505050506040513d6020811015611a9257600080fd5b81019080805190602001909291905050501015611b17576040517f08c379a00000000000000000000000000000000000000000000000000000000081526004018080602001828103825260138152602001807f4c61636b206f66204441492062616c616e63650000000000000000000000000081525060200191505060405180910390fd5b600f54816017540110611b92576040517f08c379a00000000000000000000000000000000000000000000000000000000081526004018080602001828103825260118152602001807f4974277320616c72656164792066756c6c00000000000000000000000000000081525060200191505060405180910390fd5b8060176000828254019250508190555080601860003373ffffffffffffffffffffffffffffffffffffffff1673ffffffffffffffffffffffffffffffffffffffff168152602001908152602001600020819055506014339080600181540180825580915050600190039060005260206000200160009091909190916101000a81548173ffffffffffffffffffffffffffffffffffffffff021916908373ffffffffffffffffffffffffffffffffffffffff16021790555050565b601360009054906101000a900460ff16611cb1576040517f08c379a000000000000000000000000000000000000000000000000000000000815260040180806020018281038252602381526020018061371d6023913960400191505060405180910390fd5b600d544210611d28576040517f08c379a000000000000000000000000000000000000000000000000000000000815260040180806020018281038252601f8152602001807f5468652070726f706f73616c20697320616c726561647920657870697265640081525060200191505060405180910390fd5b600b600081548110611d3657fe5b906000526020600020015481600081518110611d4e57fe5b60200260200101516016600085600081518110611d6757fe5b602002602001015173ffffffffffffffffffffffffffffffffffffffff1673ffffffffffffffffffffffffffffffffffffffff168152602001908152602001600020540110611e1e576040517f08c379a00000000000000000000000000000000000000000000000000000000081526004018080602001828103825260118152602001807f4974277320616c72656164792066756c6c00000000000000000000000000000081525060200191505060405180910390fd5b60005b8251811015611eb6576000838281518110611e3857fe5b602002602001015190506000838381518110611e5057fe5b6020026020010151905080601660008473ffffffffffffffffffffffffffffffffffffffff1673ffffffffffffffffffffffffffffffffffffffff1681526020019081526020016000206000828254019250508190555050508080600101915050611e21565b50600b600081548110611ec557fe5b9060005260206000200154601660006009600081548110611ee257fe5b9060005260206000200160009054906101000a900473ffffffffffffffffffffffffffffffffffffffff1673ffffffffffffffffffffffffffffffffffffffff1673ffffffffffffffffffffffffffffffffffffffff1681526020019081526020016000205410611f69576000601360006101000a81548160ff0219169083151502179055505b80600081518110611f7657fe5b602002602001015160196000828254019250508190555080600081518110611f9a57fe5b6020026020010151601a60003373ffffffffffffffffffffffffffffffffffffffff1673ffffffffffffffffffffffffffffffffffffffff168152602001908152602001600020819055506015339080600181540180825580915050600190039060005260206000200160009091909190916101000a81548173ffffffffffffffffffffffffffffffffffffffff021916908373ffffffffffffffffffffffffffffffffffffffff1602179055505050565b60065481565b600760009054906101000a900473ffffffffffffffffffffffffffffffffffffffff1673ffffffffffffffffffffffffffffffffffffffff163373ffffffffffffffffffffffffffffffffffffffff1614612115576040517f08c379a000000000000000000000000000000000000000000000000000000000815260040180806020018281038252601e8152602001807f4f6e6c792061646d696e2063616e206578657263697365206f7074696f6e000081525060200191505060405180910390fd5b60005b6015805490508110156123e857600860009054906101000a900473ffffffffffffffffffffffffffffffffffffffff1673ffffffffffffffffffffffffffffffffffffffff1663a9059cbb6015838154811061217057fe5b9060005260206000200160009054906101000a900473ffffffffffffffffffffffffffffffffffffffff16600b6000815481106121a957fe5b9060005260206000200154601a6000601587815481106121c557fe5b9060005260206000200160009054906101000a900473ffffffffffffffffffffffffffffffffffffffff1673ffffffffffffffffffffffffffffffffffffffff1673ffffffffffffffffffffffffffffffffffffffff168152602001908152602001600020548161223257fe5b046040518363ffffffff1660e01b8152600401808373ffffffffffffffffffffffffffffffffffffffff16815260200182815260200192505050602060405180830381600087803b15801561228657600080fd5b505af115801561229a573d6000803e3d6000fd5b505050506040513d60208110156122b057600080fd5b8101908080519060200190929190505050506123db601582815481106122d257fe5b9060005260206000200160009054906101000a900473ffffffffffffffffffffffffffffffffffffffff163073ffffffffffffffffffffffffffffffffffffffff166370a082316015858154811061232657fe5b9060005260206000200160009054906101000a900473ffffffffffffffffffffffffffffffffffffffff166040518263ffffffff1660e01b8152600401808273ffffffffffffffffffffffffffffffffffffffff16815260200191505060206040518083038186803b15801561239b57600080fd5b505afa1580156123af573d6000803e3d6000fd5b505050506040513d60208110156123c557600080fd5b8101908080519060200190929190505050613453565b8080600101915050612118565b5060005b6014805490508110156125e55760005b6009805490508110156125d75760006009828154811061241857fe5b9060005260206000200160009054906101000a900473ffffffffffffffffffffffffffffffffffffffff1690506000601754601860006014878154811061245b57fe5b9060005260206000200160009054906101000a900473ffffffffffffffffffffffffffffffffffffffff1673ffffffffffffffffffffffffffffffffffffffff1673ffffffffffffffffffffffffffffffffffffffff16815260200190815260200160002054816124c857fe5b04600b84815481106124d657fe5b90600052602060002001540290508173ffffffffffffffffffffffffffffffffffffffff1663a9059cbb6014868154811061250d57fe5b9060005260206000200160009054906101000a900473ffffffffffffffffffffffffffffffffffffffff16836040518363ffffffff1660e01b8152600401808373ffffffffffffffffffffffffffffffffffffffff16815260200182815260200192505050602060405180830381600087803b15801561258c57600080fd5b505af11580156125a0573d6000803e3d6000fd5b505050506040513d60208110156125b657600080fd5b810190808051906020019092919050505050505080806001019150506123fc565b5080806001019150506123ec565b50565b6000600160008473ffffffffffffffffffffffffffffffffffffffff1673ffffffffffffffffffffffffffffffffffffffff16815260200190815260200160002060008373ffffffffffffffffffffffffffffffffffffffff1673ffffffffffffffffffffffffffffffffffffffff16815260200190815260200160002054905092915050565b606060158054806020026020016040519081016040528092919081815260200182805480156126f357602002820191906000526020600020905b8160009054906101000a900473ffffffffffffffffffffffffffffffffffffffff1673ffffffffffffffffffffffffffffffffffffffff16815260200190600101908083116126a9575b5050505050905090565b6000600a60009054906101000a900473ffffffffffffffffffffffffffffffffffffffff16905090565b600a60009054906101000a900473ffffffffffffffffffffffffffffffffffffffff1673ffffffffffffffffffffffffffffffffffffffff163373ffffffffffffffffffffffffffffffffffffffff1614806127d05750600760009054906101000a900473ffffffffffffffffffffffffffffffffffffffff1673ffffffffffffffffffffffffffffffffffffffff163373ffffffffffffffffffffffffffffffffffffffff16145b612825576040517f08c379a00000000000000000000000000000000000000000000000000000000081526004018080602001828103825260298152602001806136ac6029913960400191505060405180910390fd5b60005b601580549050811015612aa85760005b6009805490508110156129ae5760006009828154811061285457fe5b9060005260206000200160009054906101000a900473ffffffffffffffffffffffffffffffffffffffff1690506000600b838154811061289057fe5b906000526020600020015490508173ffffffffffffffffffffffffffffffffffffffff166323b872dd601586815481106128c657fe5b9060005260206000200160009054906101000a900473ffffffffffffffffffffffffffffffffffffffff1630846040518463ffffffff1660e01b8152600401808473ffffffffffffffffffffffffffffffffffffffff1681526020018373ffffffffffffffffffffffffffffffffffffffff1681526020018281526020019350505050602060405180830381600087803b15801561296357600080fd5b505af1158015612977573d6000803e3d6000fd5b505050506040513d602081101561298d57600080fd5b81019080805190602001909291905050505050508080600101915050612838565b506000600b6000815481106129bf57fe5b9060005260206000200154601a6000601585815481106129db57fe5b9060005260206000200160009054906101000a900473ffffffffffffffffffffffffffffffffffffffff1673ffffffffffffffffffffffffffffffffffffffff1673ffffffffffffffffffffffffffffffffffffffff1681526020019081526020016000205481612a4857fe5b04905060008160125460065403029050612a9960158481548110612a6857fe5b9060005260206000200160009054906101000a900473ffffffffffffffffffffffffffffffffffffffff168261328c565b50508080600101915050612828565b5060005b601480549050811015612c665760006018600060148481548110612acc57fe5b9060005260206000200160009054906101000a900473ffffffffffffffffffffffffffffffffffffffff1673ffffffffffffffffffffffffffffffffffffffff1673ffffffffffffffffffffffffffffffffffffffff168152602001908152602001600020549050600860009054906101000a900473ffffffffffffffffffffffffffffffffffffffff1673ffffffffffffffffffffffffffffffffffffffff166323b872dd60148481548110612b7f57fe5b9060005260206000200160009054906101000a900473ffffffffffffffffffffffffffffffffffffffff1630846040518463ffffffff1660e01b8152600401808473ffffffffffffffffffffffffffffffffffffffff1681526020018373ffffffffffffffffffffffffffffffffffffffff1681526020018281526020019350505050602060405180830381600087803b158015612c1c57600080fd5b505af1158015612c30573d6000803e3d6000fd5b505050506040513d6020811015612c4657600080fd5b810190808051906020019092919050505050508080600101915050612aac565b506000601360006101000a81548160ff021916908315150217905550565b600033905090565b600073ffffffffffffffffffffffffffffffffffffffff168373ffffffffffffffffffffffffffffffffffffffff161415612d12576040517f08c379a00000000000000000000000000000000000000000000000000000000081526004018080602001828103825260248152602001806137ae6024913960400191505060405180910390fd5b600073ffffffffffffffffffffffffffffffffffffffff168273ffffffffffffffffffffffffffffffffffffffff161415612d98576040517f08c379a00000000000000000000000000000000000000000000000000000000081526004018080602001828103825260228152602001806136d56022913960400191505060405180910390fd5b80600160008573ffffffffffffffffffffffffffffffffffffffff1673ffffffffffffffffffffffffffffffffffffffff16815260200190815260200160002060008473ffffffffffffffffffffffffffffffffffffffff1673ffffffffffffffffffffffffffffffffffffffff168152602001908152602001600020819055508173ffffffffffffffffffffffffffffffffffffffff168373ffffffffffffffffffffffffffffffffffffffff167f8c5be1e5ebec7d5bd14f71427d1e84f3dd0314c0f7b2291e5b200ac8c7c3b925836040518082815260200191505060405180910390a3505050565b600073ffffffffffffffffffffffffffffffffffffffff168373ffffffffffffffffffffffffffffffffffffffff161415612f09576040517f08c379a00000000000000000000000000000000000000000000000000000000081526004018080602001828103825260258152602001806137896025913960400191505060405180910390fd5b600073ffffffffffffffffffffffffffffffffffffffff168273ffffffffffffffffffffffffffffffffffffffff161415612f8f576040517f08c379a00000000000000000000000000000000000000000000000000000000081526004018080602001828103825260238152602001806136676023913960400191505060405180910390fd5b612f9a838383613617565b613005816040518060600160405280602681526020016136f7602691396000808773ffffffffffffffffffffffffffffffffffffffff1673ffffffffffffffffffffffffffffffffffffffff168152602001908152602001600020546131449092919063ffffffff16565b6000808573ffffffffffffffffffffffffffffffffffffffff1673ffffffffffffffffffffffffffffffffffffffff16815260200190815260200160002081905550613098816000808573ffffffffffffffffffffffffffffffffffffffff1673ffffffffffffffffffffffffffffffffffffffff1681526020019081526020016000205461320490919063ffffffff16565b6000808473ffffffffffffffffffffffffffffffffffffffff1673ffffffffffffffffffffffffffffffffffffffff168152602001908152602001600020819055508173ffffffffffffffffffffffffffffffffffffffff168373ffffffffffffffffffffffffffffffffffffffff167fddf252ad1be2c89b69c2b068fc378daa952ba7f163c4a11628f55a4df523b3ef836040518082815260200191505060405180910390a3505050565b60008383111582906131f1576040517f08c379a00000000000000000000000000000000000000000000000000000000081526004018080602001828103825283818151815260200191508051906020019080838360005b838110156131b657808201518184015260208101905061319b565b50505050905090810190601f1680156131e35780820380516001836020036101000a031916815260200191505b509250505060405180910390fd5b5060008385039050809150509392505050565b600080828401905083811015613282576040517f08c379a000000000000000000000000000000000000000000000000000000000815260040180806020018281038252601b8152602001807f536166654d6174683a206164646974696f6e206f766572666c6f77000000000081525060200191505060405180910390fd5b8091505092915050565b600073ffffffffffffffffffffffffffffffffffffffff168273ffffffffffffffffffffffffffffffffffffffff16141561332f576040517f08c379a000000000000000000000000000000000000000000000000000000000815260040180806020018281038252601f8152602001807f45524332303a206d696e7420746f20746865207a65726f20616464726573730081525060200191505060405180910390fd5b61333b60008383613617565b6133508160025461320490919063ffffffff16565b6002819055506133a7816000808573ffffffffffffffffffffffffffffffffffffffff1673ffffffffffffffffffffffffffffffffffffffff1681526020019081526020016000205461320490919063ffffffff16565b6000808473ffffffffffffffffffffffffffffffffffffffff1673ffffffffffffffffffffffffffffffffffffffff168152602001908152602001600020819055508173ffffffffffffffffffffffffffffffffffffffff16600073ffffffffffffffffffffffffffffffffffffffff167fddf252ad1be2c89b69c2b068fc378daa952ba7f163c4a11628f55a4df523b3ef836040518082815260200191505060405180910390a35050565b600073ffffffffffffffffffffffffffffffffffffffff168273ffffffffffffffffffffffffffffffffffffffff1614156134d9576040517f08c379a00000000000000000000000000000000000000000000000000000000081526004018080602001828103825260218152602001806137686021913960400191505060405180910390fd5b6134e582600083613617565b6135508160405180606001604052806022815260200161368a602291396000808673ffffffffffffffffffffffffffffffffffffffff1673ffffffffffffffffffffffffffffffffffffffff168152602001908152602001600020546131449092919063ffffffff16565b6000808473ffffffffffffffffffffffffffffffffffffffff1673ffffffffffffffffffffffffffffffffffffffff168152602001908152602001600020819055506135a78160025461361c90919063ffffffff16565b600281905550600073ffffffffffffffffffffffffffffffffffffffff168273ffffffffffffffffffffffffffffffffffffffff167fddf252ad1be2c89b69c2b068fc378daa952ba7f163c4a11628f55a4df523b3ef836040518082815260200191505060405180910390a35050565b505050565b600061365e83836040518060400160405280601e81526020017f536166654d6174683a207375627472616374696f6e206f766572666c6f770000815250613144565b90509291505056fe45524332303a207472616e7366657220746f20746865207a65726f206164647265737345524332303a206275726e20616d6f756e7420657863656564732062616c616e63654f6e6c792070726f706f7365722063616e20636c6f736520746865206f70656e2070726f706f73616c45524332303a20617070726f766520746f20746865207a65726f206164647265737345524332303a207472616e7366657220616d6f756e7420657863656564732062616c616e636554686520706f6f6c2070726f706f73616c20697320616c726561647920636c6f73656445524332303a207472616e7366657220616d6f756e74206578636565647320616c6c6f77616e636545524332303a206275726e2066726f6d20746865207a65726f206164647265737345524332303a207472616e736665722066726f6d20746865207a65726f206164647265737345524332303a20617070726f76652066726f6d20746865207a65726f206164647265737345524332303a2064656372656173656420616c6c6f77616e63652062656c6f77207a65726f4f6e6c792061646d696e2063616e206c697175696461746520746865206f70656e2070726f706f73616ca264697066735822122054f9da4cc7f0ced11b03054e480c3549479b248f86532e1f3b927ab7d1484f5864736f6c63430007030033",
  "immutableReferences": {},
  "source": "pragma solidity ^0.7.3;\n\n// import \"./Shared.sol\";\nimport \"@openzeppelin/contracts/token/ERC20/IERC20.sol\";\nimport \"@openzeppelin/contracts/token/ERC20/ERC20.sol\";\n\ncontract Proposal is ERC20 {\n    uint256 public poolTokenSupply;\n    address admin;\n    IERC20 DAI;\n\n    IERC20[] tokens;\n    address public proposer;\n    uint256[] amounts;\n    uint256 startDate;\n    uint256 endDate;\n    uint256 period;\n    uint256 optionPrice;\n    uint256 optionPremium;\n    uint256 optionInterval;\n    uint256 commission;\n    bool isOpen = true;\n\n    // option buyer list\n    address[] optionSellers;\n    address[] optionBuyers;\n    mapping(IERC20 => uint256) collectedAmountMap;\n\n    uint256 optionSellerTotalAmmount;\n\n    // Option buyer - Dai commit ratio\n    mapping(address => uint256) optionSellerPortionMap;\n\n    uint256 optionBuyerTotalAmmount;\n\n    // Option buyer - Dai commit ratio\n    mapping(address => uint256) optionBuyerPortionMap;\n\n    // option buyer - claimed amount\n    mapping(address => uint256) claimedPoolTokens;\n\n    constructor(\n        address _admin,\n        address _proposer,\n        address[] memory _tokens,\n        uint256[] memory _amounts,\n        uint256 _startDate,\n        uint256 _endDate,\n        uint256 _period,\n        uint256 _optionPrice,\n        uint256 _optionPremium,\n        uint256 _optionInterval,\n        uint256 _commission,\n        string memory _name,\n        string memory _symbol,\n        address daiAddress\n    ) public ERC20(_name, _symbol) {\n        admin = _admin;\n        proposer = _proposer;\n        // tokenAddresses = _tokens;\n        amounts = _amounts;\n        startDate = _startDate;\n        endDate = _endDate;\n        period = _period;\n        commission = _commission;\n        optionPrice = _optionPrice;\n        optionPremium = _optionPremium;\n        optionInterval = _optionInterval;\n        // poolPeriod = _poolPeriod;\n        poolTokenSupply = 100;\n        DAI = IERC20(daiAddress);\n\n        for (uint256 i = 0; i < _tokens.length; i++) {\n            tokens.push(IERC20(_tokens[i]));\n        }\n    }\n\n    function enterPool(address[] memory _tokens, uint256[] memory _amounts)\n        public\n    {\n        require(isOpen, \"The pool proposal is already closed\");\n        require(block.timestamp < endDate, \"The proposal is already expired\");\n\n        require(\n            collectedAmountMap[IERC20(_tokens[0])] + _amounts[0] < amounts[0],\n            \"It's already full\"\n        );\n\n        for (uint256 i = 0; i < _tokens.length; i++) {\n            IERC20 token = IERC20(_tokens[i]);\n            uint256 amount = _amounts[i];\n\n            collectedAmountMap[token] += amount;\n        }\n\n        //Close the pool if it's full\n        if (collectedAmountMap[tokens[0]] >= amounts[0]) {\n            isOpen = false;\n        }\n\n        optionBuyerTotalAmmount += _amounts[0];\n        optionBuyerPortionMap[msg.sender] = _amounts[0];\n        optionBuyers.push(msg.sender);\n    }\n\n    function sellOption(uint256 daiAmount) public {\n        require(DAI.balanceOf(msg.sender) >= daiAmount, \"Lack of DAI balance\");\n\n        require(\n            optionSellerTotalAmmount + daiAmount < optionPrice,\n            \"It's already full\"\n        );\n\n        optionSellerTotalAmmount += daiAmount;\n        optionSellerPortionMap[msg.sender] = daiAmount;\n        optionSellers.push(msg.sender);\n    }\n\n    function finalizePool() public {\n        require(\n            msg.sender == proposer || msg.sender == admin,\n            \"Only proposer can close the open proposal\"\n        );\n\n        for (uint256 i = 0; i < optionBuyers.length; i++) {\n            for (uint256 j = 0; j < tokens.length; j++) {\n                IERC20 token = tokens[j];\n                uint256 amount = amounts[j];\n                token.transferFrom(optionBuyers[i], address(this), amount);\n            }\n\n            uint256 shareAmount = optionBuyerPortionMap[optionBuyers[i]] /\n                amounts[0];\n            uint256 poolTokenAmount = (poolTokenSupply - commission) *\n                shareAmount;\n            _mint(optionBuyers[i], poolTokenAmount);\n        }\n\n        for (uint256 i = 0; i < optionSellers.length; i++) {\n            uint256 daiAmount = optionSellerPortionMap[optionSellers[i]];\n            DAI.transferFrom(optionSellers[i], address(this), daiAmount);\n        }\n\n        isOpen = false;\n    }\n\n    function claimPremium() public {\n        require(optionSellerPortionMap[msg.sender] > 0);\n\n        // days -> unixtimestamps\n        uint256 optionIntervalUnixtimestamp = optionInterval * 60 * 60 * 24;\n\n        // elapse time in unixtimestamps\n        uint256 diff = block.timestamp - endDate;\n\n        // N possible claims\n        uint256 mult = diff / optionIntervalUnixtimestamp;\n\n        // Total possible claim amounts\n        uint256 premium = (mult *\n            optionPremium *\n            optionSellerPortionMap[msg.sender]) / optionPrice;\n\n        // Eligible claim amount\n        uint256 eligibleClaimAmount = premium - claimedPoolTokens[msg.sender];\n\n        require(eligibleClaimAmount > 0, \"Nothing to claim\");\n\n        // Claim the eligible amount\n        _mint(msg.sender, eligibleClaimAmount);\n        // DAI.transfer(msg.sender, eligibleClaimAmount);\n\n        claimedPoolTokens[msg.sender] += eligibleClaimAmount;\n    }\n\n    function liquidatePool() public {\n        require(\n            msg.sender == admin,\n            \"Only admin can liquidate the open proposal\"\n        );\n        for (uint256 i = 0; i < optionBuyers.length; i++) {\n            for (uint256 j = 0; j < tokens.length; j++) {\n                IERC20 token = tokens[j];\n                uint256 amount = amounts[j] *\n                    (this.balanceOf(optionBuyers[i]) / 100);\n                token.transfer(optionBuyers[i], amount);\n            }\n\n            _burn(optionBuyers[i], this.balanceOf(optionBuyers[i]));\n        }\n\n        for (uint256 i = 0; i < optionSellers.length; i++) {\n            for (uint256 j = 0; j < tokens.length; j++) {\n                IERC20 token = tokens[j];\n                uint256 amount = amounts[j] *\n                    (this.balanceOf(optionSellers[i]) / 100);\n\n                token.transfer(optionSellers[i], amount);\n            }\n            uint256 daiAmount = optionSellerPortionMap[optionSellers[i]];\n            DAI.transfer(optionSellers[i], daiAmount);\n            _burn(optionSellers[i], this.balanceOf(optionSellers[i]));\n        }\n\n        isOpen = false;\n    }\n\n    function exerciseOption() public {\n        require(msg.sender == admin, \"Only admin can exercise option\");\n\n        for (uint256 i = 0; i < optionBuyers.length; i++) {\n            DAI.transfer(\n                optionBuyers[i],\n                optionBuyerPortionMap[optionBuyers[i]] / amounts[0]\n            );\n            _burn(optionBuyers[i], this.balanceOf(optionBuyers[i]));\n        }\n\n        for (uint256 i = 0; i < optionSellers.length; i++) {\n            for (uint256 j = 0; j < tokens.length; j++) {\n                IERC20 token = tokens[j];\n                uint256 amount = amounts[j] *\n                    (optionSellerPortionMap[optionSellers[i]] /\n                        optionSellerTotalAmmount);\n                token.transfer(optionSellers[i], amount);\n            }\n        }\n    }\n\n    function getProposer() public view returns (address) {\n        return proposer;\n    }\n\n    function getoptionBuyers() public view returns (address[] memory) {\n        return optionBuyers;\n    }\n\n    function getPeriod() public view returns (uint256) {\n        return period;\n    }\n\n    function getOptionPrice() public view returns (uint256) {\n        return optionPrice;\n    }\n\n    function getOptionPremium() public view returns (uint256) {\n        return optionPremium;\n    }\n\n    // function getPoolPeriod() public view returns (uint256) {\n    //     return poolPeriod;\n    // }\n\n    function getOptionInterval() public view returns (uint256) {\n        return optionInterval;\n    }\n\n    function getStartDate() public view returns (uint256) {\n        return startDate;\n    }\n\n    function getEndDate() public view returns (uint256) {\n        return endDate;\n    }\n\n    function getIsOpen() public view returns (bool) {\n        return isOpen;\n    }\n\n    function getAmounts() public view returns (uint256[] memory) {\n        return amounts;\n    }\n}\n",
  "sourcePath": "/Users/Daniel/GoogleDrive/re-fungible/contracts/Proposal.sol",
  "compiler": {
    "name": "solc",
    "version": "0.7.3+commit.9bfce1f6.Emscripten.clang"
  },
  "schemaVersion": "3.3.2",
  "updatedAt": "2020-12-12T06:32:05.351Z",
  "devdoc": {
    "kind": "dev",
    "methods": {
      "allowance(address,address)": {
        "details": "See {IERC20-allowance}."
      },
      "approve(address,uint256)": {
        "details": "See {IERC20-approve}. Requirements: - `spender` cannot be the zero address."
      },
      "balanceOf(address)": {
        "details": "See {IERC20-balanceOf}."
      },
      "decimals()": {
        "details": "Returns the number of decimals used to get its user representation. For example, if `decimals` equals `2`, a balance of `505` tokens should be displayed to a user as `5,05` (`505 / 10 ** 2`). Tokens usually opt for a value of 18, imitating the relationship between Ether and Wei. This is the value {ERC20} uses, unless {_setupDecimals} is called. NOTE: This information is only used for _display_ purposes: it in no way affects any of the arithmetic of the contract, including {IERC20-balanceOf} and {IERC20-transfer}."
      },
      "decreaseAllowance(address,uint256)": {
        "details": "Atomically decreases the allowance granted to `spender` by the caller. This is an alternative to {approve} that can be used as a mitigation for problems described in {IERC20-approve}. Emits an {Approval} event indicating the updated allowance. Requirements: - `spender` cannot be the zero address. - `spender` must have allowance for the caller of at least `subtractedValue`."
      },
      "increaseAllowance(address,uint256)": {
        "details": "Atomically increases the allowance granted to `spender` by the caller. This is an alternative to {approve} that can be used as a mitigation for problems described in {IERC20-approve}. Emits an {Approval} event indicating the updated allowance. Requirements: - `spender` cannot be the zero address."
      },
      "name()": {
        "details": "Returns the name of the token."
      },
      "symbol()": {
        "details": "Returns the symbol of the token, usually a shorter version of the name."
      },
      "totalSupply()": {
        "details": "See {IERC20-totalSupply}."
      },
      "transfer(address,uint256)": {
        "details": "See {IERC20-transfer}. Requirements: - `recipient` cannot be the zero address. - the caller must have a balance of at least `amount`."
      },
      "transferFrom(address,address,uint256)": {
        "details": "See {IERC20-transferFrom}. Emits an {Approval} event indicating the updated allowance. This is not required by the EIP. See the note at the beginning of {ERC20}. Requirements: - `sender` and `recipient` cannot be the zero address. - `sender` must have a balance of at least `amount`. - the caller must have allowance for ``sender``'s tokens of at least `amount`."
      }
    },
    "version": 1
  },
  "userdoc": {
    "kind": "user",
    "methods": {},
    "version": 1
  }
}