{
  "contractName": "Proposal",
  "abi": [
    {
      "inputs": [
        {
          "internalType": "address",
          "name": "_proposer",
          "type": "address"
        },
        {
          "internalType": "address[]",
          "name": "_tokens",
          "type": "address[]"
        },
        {
          "internalType": "uint256[]",
          "name": "_amounts",
          "type": "uint256[]"
        },
        {
          "internalType": "uint256",
          "name": "_startDate",
          "type": "uint256"
        },
        {
          "internalType": "uint256",
          "name": "_endDate",
          "type": "uint256"
        },
        {
          "internalType": "uint256",
          "name": "_period",
          "type": "uint256"
        },
        {
          "internalType": "uint256",
          "name": "_optionPrice",
          "type": "uint256"
        },
        {
          "internalType": "uint256",
          "name": "_optionPremium",
          "type": "uint256"
        },
        {
          "internalType": "uint256",
          "name": "_optionInterval",
          "type": "uint256"
        },
        {
          "internalType": "uint256",
          "name": "_poolPeriod",
          "type": "uint256"
        }
      ],
      "stateMutability": "nonpayable",
      "type": "constructor"
    },
    {
      "inputs": [],
      "name": "proposer",
      "outputs": [
        {
          "internalType": "address",
          "name": "",
          "type": "address"
        }
      ],
      "stateMutability": "view",
      "type": "function"
    },
    {
      "inputs": [
        {
          "internalType": "address[]",
          "name": "_tokens",
          "type": "address[]"
        },
        {
          "internalType": "uint256[]",
          "name": "_amounts",
          "type": "uint256[]"
        }
      ],
      "name": "enterPool",
      "outputs": [],
      "stateMutability": "nonpayable",
      "type": "function"
    },
    {
      "inputs": [],
      "name": "finalizePool",
      "outputs": [],
      "stateMutability": "nonpayable",
      "type": "function"
    },
    {
      "inputs": [
        {
          "internalType": "uint256",
          "name": "_amount",
          "type": "uint256"
        }
      ],
      "name": "buyOption",
      "outputs": [],
      "stateMutability": "nonpayable",
      "type": "function"
    },
    {
      "inputs": [],
      "name": "claimPremium",
      "outputs": [],
      "stateMutability": "nonpayable",
      "type": "function"
    },
    {
      "inputs": [],
      "name": "liquidatePool",
      "outputs": [],
      "stateMutability": "nonpayable",
      "type": "function"
    },
    {
      "inputs": [],
      "name": "getTokens",
      "outputs": [
        {
          "internalType": "address[]",
          "name": "",
          "type": "address[]"
        }
      ],
      "stateMutability": "view",
      "type": "function"
    },
    {
      "inputs": [],
      "name": "getProposer",
      "outputs": [
        {
          "internalType": "address",
          "name": "",
          "type": "address"
        }
      ],
      "stateMutability": "view",
      "type": "function"
    },
    {
      "inputs": [],
      "name": "getParticipants",
      "outputs": [
        {
          "internalType": "address[]",
          "name": "",
          "type": "address[]"
        }
      ],
      "stateMutability": "view",
      "type": "function"
    },
    {
      "inputs": [],
      "name": "getPeriod",
      "outputs": [
        {
          "internalType": "uint256",
          "name": "",
          "type": "uint256"
        }
      ],
      "stateMutability": "view",
      "type": "function"
    },
    {
      "inputs": [],
      "name": "getOptionPrice",
      "outputs": [
        {
          "internalType": "uint256",
          "name": "",
          "type": "uint256"
        }
      ],
      "stateMutability": "view",
      "type": "function"
    },
    {
      "inputs": [],
      "name": "getOptionPremium",
      "outputs": [
        {
          "internalType": "uint256",
          "name": "",
          "type": "uint256"
        }
      ],
      "stateMutability": "view",
      "type": "function"
    },
    {
      "inputs": [],
      "name": "getPoolPeriod",
      "outputs": [
        {
          "internalType": "uint256",
          "name": "",
          "type": "uint256"
        }
      ],
      "stateMutability": "view",
      "type": "function"
    },
    {
      "inputs": [],
      "name": "getOptionInterval",
      "outputs": [
        {
          "internalType": "uint256",
          "name": "",
          "type": "uint256"
        }
      ],
      "stateMutability": "view",
      "type": "function"
    },
    {
      "inputs": [],
      "name": "getStartDate",
      "outputs": [
        {
          "internalType": "uint256",
          "name": "",
          "type": "uint256"
        }
      ],
      "stateMutability": "view",
      "type": "function"
    },
    {
      "inputs": [],
      "name": "getEndDate",
      "outputs": [
        {
          "internalType": "uint256",
          "name": "",
          "type": "uint256"
        }
      ],
      "stateMutability": "view",
      "type": "function"
    },
    {
      "inputs": [],
      "name": "getIsOpen",
      "outputs": [
        {
          "internalType": "bool",
          "name": "",
          "type": "bool"
        }
      ],
      "stateMutability": "view",
      "type": "function"
    },
    {
      "inputs": [],
      "name": "getAmounts",
      "outputs": [
        {
          "internalType": "uint256[]",
          "name": "",
          "type": "uint256[]"
        }
      ],
      "stateMutability": "view",
      "type": "function"
    }
  ],
  "bytecode": "0x6080604052736b175474e89094c44da98b954eedeac495271d0f600160006101000a81548173ffffffffffffffffffffffffffffffffffffffff021916908373ffffffffffffffffffffffffffffffffffffffff1602179055506001600f60006101000a81548160ff0219169083151502179055503480156200008157600080fd5b5060405162001d4038038062001d408339818101604052610140811015620000a857600080fd5b810190808051906020019092919080516040519392919084640100000000821115620000d357600080fd5b83820191506020820185811115620000ea57600080fd5b82518660208202830111640100000000821117156200010857600080fd5b8083526020830192505050908051906020019060200280838360005b838110156200014157808201518184015260208101905062000124565b50505050905001604052602001805160405193929190846401000000008211156200016b57600080fd5b838201915060208201858111156200018257600080fd5b8251866020820283011164010000000082111715620001a057600080fd5b8083526020830192505050908051906020019060200280838360005b83811015620001d9578082015181840152602081019050620001bc565b5050505090500160405260200180519060200190929190805190602001909291908051906020019092919080519060200190929190805190602001909291908051906020019092919080519060200190929190505050336000806101000a81548173ffffffffffffffffffffffffffffffffffffffff021916908373ffffffffffffffffffffffffffffffffffffffff16021790555089600460006101000a81548173ffffffffffffffffffffffffffffffffffffffff021916908373ffffffffffffffffffffffffffffffffffffffff1602179055508860029080519060200190620002c892919062000422565b508760089080519060200190620002e1929190620004b1565b508660098190555085600a8190555084600b8190555083600c8190555082600d8190555081600e819055508060078190555060005b8951811015620004115760038a82815181106200032f57fe5b60200260200101519080600181540180825580915050600190039060005260206000200160009091909190916101000a81548173ffffffffffffffffffffffffffffffffffffffff021916908373ffffffffffffffffffffffffffffffffffffffff160217905550888181518110620003a457fe5b6020026020010151601160008c8481518110620003bd57fe5b602002602001015173ffffffffffffffffffffffffffffffffffffffff1673ffffffffffffffffffffffffffffffffffffffff16815260200190815260200160002081905550808060010191505062000316565b505050505050505050505062000522565b8280548282559060005260206000209081019282156200049e579160200282015b828111156200049d5782518260006101000a81548173ffffffffffffffffffffffffffffffffffffffff021916908373ffffffffffffffffffffffffffffffffffffffff1602179055509160200191906001019062000443565b5b509050620004ad919062000503565b5090565b828054828255906000526020600020908101928215620004f0579160200282015b82811115620004ef578251825591602001919060010190620004d2565b5b509050620004ff919062000503565b5090565b5b808211156200051e57600081600090555060010162000504565b5090565b61180e80620005326000396000f3fe608060405234801561001057600080fd5b50600436106101165760003560e01c806390807807116100a2578063b1b0be2f11610071578063b1b0be2f14610352578063c00baf6014610372578063e9790d02146104be578063f648b99e146104f2578063fba225b9146104fc57610116565b80639080780714610297578063a8e4fb90146102a1578063aa6ca808146102d5578063b13564881461033457610116565b80635aa68ac0116100e95780635aa68ac0146101c05780635f21d4f11461021f5780635fe786c11461023d57806378f305c61461025b578063888ed72f1461027957610116565b80631ed241951461011b5780633d370b4e1461013957806349bc856d14610198578063529663db146101b6575b600080fd5b61012361052a565b6040518082815260200191505060405180910390f35b610141610534565b6040518080602001828103825283818151815260200191508051906020019060200280838360005b83811015610184578082015181840152602081019050610169565b505050509050019250505060405180910390f35b6101a061058c565b6040518082815260200191505060405180910390f35b6101be610596565b005b6101c8610831565b6040518080602001828103825283818151815260200191508051906020019060200280838360005b8381101561020b5780820151818401526020810190506101f0565b505050509050019250505060405180910390f35b6102276108bf565b6040518082815260200191505060405180910390f35b6102456108c9565b6040518082815260200191505060405180910390f35b6102636108d3565b6040518082815260200191505060405180910390f35b6102816108dd565b6040518082815260200191505060405180910390f35b61029f6108e7565b005b6102a9610bc8565b604051808273ffffffffffffffffffffffffffffffffffffffff16815260200191505060405180910390f35b6102dd610bee565b6040518080602001828103825283818151815260200191508051906020019060200280838360005b83811015610320578082015181840152602081019050610305565b505050509050019250505060405180910390f35b61033c610c7c565b6040518082815260200191505060405180910390f35b61035a610c86565b60405180821515815260200191505060405180910390f35b6104bc6004803603604081101561038857600080fd5b81019080803590602001906401000000008111156103a557600080fd5b8201836020820111156103b757600080fd5b803590602001918460208302840111640100000000831117156103d957600080fd5b919080806020026020016040519081016040528093929190818152602001838360200280828437600081840152601f19601f8201169050808301925050505050505091929192908035906020019064010000000081111561043957600080fd5b82018360208201111561044b57600080fd5b8035906020019184602083028401116401000000008311171561046d57600080fd5b919080806020026020016040519081016040528093929190818152602001838360200280828437600081840152601f19601f820116905080830192505050505050509192919290505050610c9d565b005b6104c661120f565b604051808273ffffffffffffffffffffffffffffffffffffffff16815260200191505060405180910390f35b6104fa611239565b005b6105286004803603602081101561051257600080fd5b810190808035906020019092919050505061158a565b005b6000600b54905090565b6060600880548060200260200160405190810160405280929190818152602001828054801561058257602002820191906000526020600020905b81548152602001906001019080831161056e575b5050505050905090565b6000600e54905090565b6000601660003373ffffffffffffffffffffffffffffffffffffffff1673ffffffffffffffffffffffffffffffffffffffff16815260200190815260200160002054116105e257600080fd5b60006018603c80600e5402020290506000600a5442039050600082828161060557fe5b0490506000601760003373ffffffffffffffffffffffffffffffffffffffff1673ffffffffffffffffffffffffffffffffffffffff16815260200190815260200160002054600d5483020290506000601860003373ffffffffffffffffffffffffffffffffffffffff1673ffffffffffffffffffffffffffffffffffffffff16815260200190815260200160002054820390506000811161070e576040517f08c379a00000000000000000000000000000000000000000000000000000000081526004018080602001828103825260108152602001807f4e6f7468696e6720746f20636c61696d0000000000000000000000000000000081525060200191505060405180910390fd5b600160009054906101000a900473ffffffffffffffffffffffffffffffffffffffff1673ffffffffffffffffffffffffffffffffffffffff1663a9059cbb33836040518363ffffffff1660e01b8152600401808373ffffffffffffffffffffffffffffffffffffffff16815260200182815260200192505050602060405180830381600087803b1580156107a157600080fd5b505af11580156107b5573d6000803e3d6000fd5b505050506040513d60208110156107cb57600080fd5b81019080805190602001909291905050505080601860003373ffffffffffffffffffffffffffffffffffffffff1673ffffffffffffffffffffffffffffffffffffffff168152602001908152602001600020600082825401925050819055505050505050565b606060058054806020026020016040519081016040528092919081815260200182805480156108b557602002820191906000526020600020905b8160009054906101000a900473ffffffffffffffffffffffffffffffffffffffff1673ffffffffffffffffffffffffffffffffffffffff168152602001906001019080831161086b575b5050505050905090565b6000600c54905090565b6000600d54905090565b6000600954905090565b6000600754905090565b60008054906101000a900473ffffffffffffffffffffffffffffffffffffffff1673ffffffffffffffffffffffffffffffffffffffff163373ffffffffffffffffffffffffffffffffffffffff161461098b576040517f08c379a000000000000000000000000000000000000000000000000000000000815260040180806020018281038252602a8152602001806117af602a913960400191505060405180910390fd5b60005b6005805490508160ff161015610baa5760006013600060058460ff16815481106109b457fe5b9060005260206000200160009054906101000a900473ffffffffffffffffffffffffffffffffffffffff1673ffffffffffffffffffffffffffffffffffffffff1673ffffffffffffffffffffffffffffffffffffffff16815260200190815260200160002060009054906101000a900473ffffffffffffffffffffffffffffffffffffffff1690508073ffffffffffffffffffffffffffffffffffffffff1663a9059cbb60058460ff1681548110610a6857fe5b9060005260206000200160009054906101000a900473ffffffffffffffffffffffffffffffffffffffff166014600060058760ff1681548110610aa757fe5b9060005260206000200160009054906101000a900473ffffffffffffffffffffffffffffffffffffffff1673ffffffffffffffffffffffffffffffffffffffff1673ffffffffffffffffffffffffffffffffffffffff168152602001908152602001600020546040518363ffffffff1660e01b8152600401808373ffffffffffffffffffffffffffffffffffffffff16815260200182815260200192505050602060405180830381600087803b158015610b6057600080fd5b505af1158015610b74573d6000803e3d6000fd5b505050506040513d6020811015610b8a57600080fd5b81019080805190602001909291905050505050808060010191505061098e565b506000600f60006101000a81548160ff021916908315150217905550565b600460009054906101000a900473ffffffffffffffffffffffffffffffffffffffff1681565b60606002805480602002602001604051908101604052809291908181526020018280548015610c7257602002820191906000526020600020905b8160009054906101000a900473ffffffffffffffffffffffffffffffffffffffff1673ffffffffffffffffffffffffffffffffffffffff1681526020019060010190808311610c28575b5050505050905090565b6000600a54905090565b6000600f60009054906101000a900460ff16905090565b600f60009054906101000a900460ff16610d02576040517f08c379a000000000000000000000000000000000000000000000000000000000815260040180806020018281038252602381526020018061178c6023913960400191505060405180910390fd5b600a544210610d79576040517f08c379a000000000000000000000000000000000000000000000000000000000815260040180806020018281038252601f8152602001807f5468652070726f706f73616c20697320616c726561647920657870697265640081525060200191505060405180910390fd5b601160006003600081548110610d8b57fe5b9060005260206000200160009054906101000a900473ffffffffffffffffffffffffffffffffffffffff1673ffffffffffffffffffffffffffffffffffffffff1673ffffffffffffffffffffffffffffffffffffffff16815260200190815260200160002054601260006003600081548110610e0357fe5b9060005260206000200160009054906101000a900473ffffffffffffffffffffffffffffffffffffffff1673ffffffffffffffffffffffffffffffffffffffff1673ffffffffffffffffffffffffffffffffffffffff1681526020019081526020016000205410610edc576040517f08c379a00000000000000000000000000000000000000000000000000000000081526004018080602001828103825260118152602001807f4974277320616c72656164792066756c6c00000000000000000000000000000081525060200191505060405180910390fd5b60005b82518110156110e3576000838281518110610ef657fe5b602002602001015190506000838381518110610f0e57fe5b6020026020010151905081601360003373ffffffffffffffffffffffffffffffffffffffff1673ffffffffffffffffffffffffffffffffffffffff16815260200190815260200160002060006101000a81548173ffffffffffffffffffffffffffffffffffffffff021916908373ffffffffffffffffffffffffffffffffffffffff16021790555080601460003373ffffffffffffffffffffffffffffffffffffffff1673ffffffffffffffffffffffffffffffffffffffff1681526020019081526020016000208190555080601260008473ffffffffffffffffffffffffffffffffffffffff1673ffffffffffffffffffffffffffffffffffffffff168152602001908152602001600020600082825401925050819055508173ffffffffffffffffffffffffffffffffffffffff1663095ea7b330836040518363ffffffff1660e01b8152600401808373ffffffffffffffffffffffffffffffffffffffff16815260200182815260200192505050602060405180830381600087803b15801561109857600080fd5b505af11580156110ac573d6000803e3d6000fd5b505050506040513d60208110156110c257600080fd5b81019080805190602001909291905050505050508080600101915050610edf565b5060086000815481106110f257fe5b906000526020600020015460126000600360008154811061110f57fe5b9060005260206000200160009054906101000a900473ffffffffffffffffffffffffffffffffffffffff1673ffffffffffffffffffffffffffffffffffffffff1673ffffffffffffffffffffffffffffffffffffffff1681526020019081526020016000205410611196576000600f60006101000a81548160ff0219169083151502179055505b6005339080600181540180825580915050600190039060005260206000200160009091909190916101000a81548173ffffffffffffffffffffffffffffffffffffffff021916908373ffffffffffffffffffffffffffffffffffffffff1602179055506006600081548092919060010191905055505050565b6000600460009054906101000a900473ffffffffffffffffffffffffffffffffffffffff16905090565b600460009054906101000a900473ffffffffffffffffffffffffffffffffffffffff1673ffffffffffffffffffffffffffffffffffffffff163373ffffffffffffffffffffffffffffffffffffffff1614806112e0575060008054906101000a900473ffffffffffffffffffffffffffffffffffffffff1673ffffffffffffffffffffffffffffffffffffffff163373ffffffffffffffffffffffffffffffffffffffff16145b611335576040517f08c379a00000000000000000000000000000000000000000000000000000000081526004018080602001828103825260298152602001806117636029913960400191505060405180910390fd5b60005b60058054905081101561156c576000601360006005848154811061135857fe5b9060005260206000200160009054906101000a900473ffffffffffffffffffffffffffffffffffffffff1673ffffffffffffffffffffffffffffffffffffffff1673ffffffffffffffffffffffffffffffffffffffff16815260200190815260200160002060009054906101000a900473ffffffffffffffffffffffffffffffffffffffff169050600060146000600585815481106113f357fe5b9060005260206000200160009054906101000a900473ffffffffffffffffffffffffffffffffffffffff1673ffffffffffffffffffffffffffffffffffffffff1673ffffffffffffffffffffffffffffffffffffffff1681526020019081526020016000205490508173ffffffffffffffffffffffffffffffffffffffff166323b872dd6005858154811061148457fe5b9060005260206000200160009054906101000a900473ffffffffffffffffffffffffffffffffffffffff1630846040518463ffffffff1660e01b8152600401808473ffffffffffffffffffffffffffffffffffffffff1681526020018373ffffffffffffffffffffffffffffffffffffffff1681526020018281526020019350505050602060405180830381600087803b15801561152157600080fd5b505af1158015611535573d6000803e3d6000fd5b505050506040513d602081101561154b57600080fd5b81019080805190602001909291905050505050508080600101915050611338565b506000600f60006101000a81548160ff021916908315150217905550565b80601660003373ffffffffffffffffffffffffffffffffffffffff1673ffffffffffffffffffffffffffffffffffffffff168152602001908152602001600020819055508060156000828254019250508190555060155481816115e957fe5b04601760003373ffffffffffffffffffffffffffffffffffffffff1673ffffffffffffffffffffffffffffffffffffffff16815260200190815260200160002081905550600160009054906101000a900473ffffffffffffffffffffffffffffffffffffffff1673ffffffffffffffffffffffffffffffffffffffff1663a9059cbb30836040518363ffffffff1660e01b8152600401808373ffffffffffffffffffffffffffffffffffffffff16815260200182815260200192505050602060405180830381600087803b1580156116c057600080fd5b505af11580156116d4573d6000803e3d6000fd5b505050506040513d60208110156116ea57600080fd5b8101908080519060200190929190505050506010339080600181540180825580915050600190039060005260206000200160009091909190916101000a81548173ffffffffffffffffffffffffffffffffffffffff021916908373ffffffffffffffffffffffffffffffffffffffff1602179055505056fe4f6e6c792070726f706f7365722063616e20636c6f736520746865206f70656e2070726f706f73616c54686520706f6f6c2070726f706f73616c20697320616c726561647920636c6f7365644f6e6c792061646d696e2063616e206c697175696461746520746865206f70656e2070726f706f73616ca2646970667358221220fb0450fac35c2111decfaaf27c5d245db2d3901e33b02ed7782562c004e80ad964736f6c63430007030033",
  "immutableReferences": {},
  "source": "pragma solidity ^0.7.3;\n\n// import 'Token.sol';\nimport \"@openzeppelin/contracts/token/ERC20/IERC20.sol\";\n\ncontract Proposal {\n    address admin;\n    IERC20 DAI = IERC20(address(0x6B175474E89094C44Da98b954EedeAC495271d0F));\n\n    // Proposal spec\n    address[] tokenAddresses;\n    IERC20[] tokens;\n    address public proposer;\n    address[] participants;\n    uint256 nParticipant;\n    uint256 poolPeriod;\n    uint256[] amounts;\n    uint256 startDate;\n    uint256 endDate;\n    uint256 period;\n    uint256 optionPrice;\n    uint256 optionPremium;\n    uint256 optionInterval;\n    bool isOpen = true;\n\n    // option buyer list\n    address[] optionBuyers;\n\n    // Maximum amount of each token to enter\n    mapping(IERC20 => uint256) maxAmountMap;\n\n    // Amount of each token collected\n    mapping(IERC20 => uint256) collectedAmountMap;\n\n    // participate - token\n    mapping(address => IERC20) tokenMap;\n\n    // participate - amount commited\n    mapping(address => uint256) amountMap;\n\n    // Total amount of dai reserved\n    uint256 optionBuyerTotalAmmount;\n\n    // Option buyer - Dai amount\n    mapping(address => uint256) optionBuyerMap;\n\n    // Option buyer - Dai commit ratio\n    mapping(address => uint256) optionBuyerPortionMap;\n\n    // option buyer - claimed amount\n    mapping(address => uint256) claimedDai;\n\n    constructor(\n        address _proposer,\n        address[] memory _tokens,\n        uint256[] memory _amounts,\n        uint256 _startDate,\n        uint256 _endDate,\n        uint256 _period,\n        uint256 _optionPrice,\n        uint256 _optionPremium,\n        uint256 _optionInterval,\n        uint256 _poolPeriod\n    ) public {\n        admin = msg.sender;\n        proposer = _proposer;\n        tokenAddresses = _tokens;\n        amounts = _amounts;\n        startDate = _startDate;\n        endDate = _endDate;\n        period = _period;\n        optionPrice = _optionPrice;\n        optionPremium = _optionPremium;\n        optionInterval = _optionInterval;\n        poolPeriod = _poolPeriod;\n\n        for (uint256 i = 0; i < _tokens.length; i++) {\n            tokens.push(IERC20(_tokens[i]));\n            maxAmountMap[IERC20(_tokens[i])] = _amounts[i];\n        }\n    }\n\n    function enterPool(address[] memory _tokens, uint256[] memory _amounts)\n        public\n    {\n        require(isOpen, \"The pool proposal is already closed\");\n        require(block.timestamp < endDate, \"The proposal is already expired\");\n\n        require(\n            collectedAmountMap[tokens[0]] < maxAmountMap[tokens[0]],\n            \"It's already full\"\n        );\n\n        for (uint256 i = 0; i < _tokens.length; i++) {\n            IERC20 token = IERC20(_tokens[i]);\n\n            uint256 amount = _amounts[i];\n\n            tokenMap[msg.sender] = token;\n\n            amountMap[msg.sender] = amount;\n\n            collectedAmountMap[token] += amount;\n\n            token.approve(address(this), amount);\n        }\n\n        // Close the pool if it's full\n        if (collectedAmountMap[tokens[0]] >= amounts[0]) {\n            isOpen = false;\n        }\n\n        participants.push(msg.sender);\n        nParticipant++;\n    }\n\n    // function getAllowance() external view returns (uint256) {\n\n    // }\n\n    function finalizePool() public {\n        require(\n            msg.sender == proposer || msg.sender == admin,\n            \"Only proposer can close the open proposal\"\n        );\n\n        for (uint256 i = 0; i < participants.length; i++) {\n            IERC20 token = tokenMap[participants[i]];\n            uint256 amount = amountMap[participants[i]];\n\n            token.transferFrom(participants[i], address(this), amount);\n            // collectedAmountMap[token] += amount;\n        }\n\n        isOpen = false;\n    }\n\n    function buyOption(uint256 _amount) public {\n        optionBuyerMap[msg.sender] = _amount;\n\n        optionBuyerTotalAmmount += _amount;\n\n        optionBuyerPortionMap[msg.sender] = _amount / optionBuyerTotalAmmount;\n\n        DAI.transfer(address(this), _amount);\n\n        optionBuyers.push(msg.sender);\n    }\n\n    function claimPremium() public {\n        require(optionBuyerMap[msg.sender] > 0);\n\n        // days -> unixtimestamps\n        uint256 optionIntervalUnixtimestamp = optionInterval * 60 * 60 * 24;\n\n        // elapse time in unixtimestamps\n        uint256 diff = block.timestamp - endDate;\n\n        // N possible claims\n        uint256 mult = diff / optionIntervalUnixtimestamp;\n\n        // Total possible claim amounts\n        uint256 premium = mult *\n            optionPremium *\n            optionBuyerPortionMap[msg.sender];\n\n        // Eligible claim amount\n        uint256 eligibleClaimAmount = premium - claimedDai[msg.sender];\n\n        require(eligibleClaimAmount > 0, \"Nothing to claim\");\n\n        // Claim the eligible amount\n        DAI.transfer(msg.sender, eligibleClaimAmount);\n\n        claimedDai[msg.sender] += eligibleClaimAmount;\n    }\n\n    function liquidatePool() public {\n        require(\n            msg.sender == admin,\n            \"Only admin can liquidate the open proposal\"\n        );\n\n        for (uint8 i = 0; i < participants.length; i++) {\n            IERC20 token = tokenMap[participants[i]];\n            token.transfer(participants[i], amountMap[participants[i]]);\n        }\n\n        isOpen = false;\n    }\n\n    function getTokens() public view returns (address[] memory) {\n        return tokenAddresses;\n    }\n\n    function getProposer() public view returns (address) {\n        return proposer;\n    }\n\n    function getParticipants() public view returns (address[] memory) {\n        return participants;\n    }\n\n    function getPeriod() public view returns (uint256) {\n        return period;\n    }\n\n    function getOptionPrice() public view returns (uint256) {\n        return optionPrice;\n    }\n\n    function getOptionPremium() public view returns (uint256) {\n        return optionPremium;\n    }\n\n    function getPoolPeriod() public view returns (uint256) {\n        return poolPeriod;\n    }\n\n    function getOptionInterval() public view returns (uint256) {\n        return optionInterval;\n    }\n\n    function getStartDate() public view returns (uint256) {\n        return startDate;\n    }\n\n    function getEndDate() public view returns (uint256) {\n        return endDate;\n    }\n\n    function getIsOpen() public view returns (bool) {\n        return isOpen;\n    }\n\n    function getAmounts() public view returns (uint256[] memory) {\n        return amounts;\n    }\n\n    // uint256 startDate;\n    // uint256 endDate;\n}\n",
  "sourcePath": "/Users/Daniel/Desktop/re-fungible/contracts/Proposal.sol",
  "compiler": {
    "name": "solc",
    "version": "0.7.3+commit.9bfce1f6.Emscripten.clang"
  },
  "schemaVersion": "3.3.2",
  "updatedAt": "2020-12-06T14:43:59.369Z",
  "devdoc": {
    "kind": "dev",
    "methods": {},
    "version": 1
  },
  "userdoc": {
    "kind": "user",
    "methods": {},
    "version": 1
  }
}