{
  "contractName": "ProposalFactory",
  "abi": [
    {
      "inputs": [
        {
          "internalType": "uint256",
          "name": "",
          "type": "uint256"
        }
      ],
      "name": "deployedProposals",
      "outputs": [
        {
          "internalType": "address",
          "name": "",
          "type": "address"
        }
      ],
      "stateMutability": "view",
      "type": "function"
    },
    {
      "inputs": [
        {
          "internalType": "address",
          "name": "admin",
          "type": "address"
        },
        {
          "internalType": "address",
          "name": "proposer",
          "type": "address"
        },
        {
          "internalType": "address[]",
          "name": "tokens",
          "type": "address[]"
        },
        {
          "internalType": "uint256[]",
          "name": "amounts",
          "type": "uint256[]"
        },
        {
          "internalType": "uint256",
          "name": "startDate",
          "type": "uint256"
        },
        {
          "internalType": "uint256",
          "name": "endDate",
          "type": "uint256"
        },
        {
          "internalType": "uint256",
          "name": "period",
          "type": "uint256"
        },
        {
          "internalType": "uint256",
          "name": "optionPrice",
          "type": "uint256"
        },
        {
          "internalType": "uint256",
          "name": "optionPremium",
          "type": "uint256"
        },
        {
          "internalType": "uint256",
          "name": "optionInterval",
          "type": "uint256"
        },
        {
          "internalType": "uint256",
          "name": "commission",
          "type": "uint256"
        },
        {
          "internalType": "string",
          "name": "name",
          "type": "string"
        },
        {
          "internalType": "string",
          "name": "symbol",
          "type": "string"
        },
        {
          "internalType": "address",
          "name": "daiAddress",
          "type": "address"
        }
      ],
      "name": "createProposal",
      "outputs": [],
      "stateMutability": "nonpayable",
      "type": "function"
    },
    {
      "inputs": [],
      "name": "getDeployedProposals",
      "outputs": [
        {
          "internalType": "address[]",
          "name": "",
          "type": "address[]"
        }
      ],
      "stateMutability": "view",
      "type": "function"
    }
  ],
  "bytecode": "0x608060405234801561001057600080fd5b5061052e806100206000396000f3fe608060405234801561001057600080fd5b50600436106100415760003560e01c80635b58ae7a146100465780638a7db2d214610367578063b88504fd146103c6575b600080fd5b61036560048036036101c081101561005d57600080fd5b81019080803573ffffffffffffffffffffffffffffffffffffffff169060200190929190803573ffffffffffffffffffffffffffffffffffffffff169060200190929190803590602001906401000000008111156100ba57600080fd5b8201836020820111156100cc57600080fd5b803590602001918460208302840111640100000000831117156100ee57600080fd5b919080806020026020016040519081016040528093929190818152602001838360200280828437600081840152601f19601f8201169050808301925050505050505091929192908035906020019064010000000081111561014e57600080fd5b82018360208201111561016057600080fd5b8035906020019184602083028401116401000000008311171561018257600080fd5b919080806020026020016040519081016040528093929190818152602001838360200280828437600081840152601f19601f820116905080830192505050505050509192919290803590602001909291908035906020019092919080359060200190929190803590602001909291908035906020019092919080359060200190929190803590602001909291908035906020019064010000000081111561022857600080fd5b82018360208201111561023a57600080fd5b8035906020019184600183028401116401000000008311171561025c57600080fd5b91908080601f016020809104026020016040519081016040528093929190818152602001838380828437600081840152601f19601f820116905080830192505050505050509192919290803590602001906401000000008111156102bf57600080fd5b8201836020820111156102d157600080fd5b803590602001918460018302840111640100000000831117156102f357600080fd5b91908080601f016020809104026020016040519081016040528093929190818152602001838380828437600081840152601f19601f820116905080830192505050505050509192919290803573ffffffffffffffffffffffffffffffffffffffff16906020019092919050505061041e565b005b61036f61042e565b6040518080602001828103825283818151815260200191508051906020019060200280838360005b838110156103b2578082015181840152602081019050610397565b505050509050019250505060405180910390f35b6103f2600480360360208110156103dc57600080fd5b81019080803590602001909291905050506104bc565b604051808273ffffffffffffffffffffffffffffffffffffffff16815260200191505060405180910390f35b5050505050505050505050505050565b606060008054806020026020016040519081016040528092919081815260200182805480156104b257602002820191906000526020600020905b8160009054906101000a900473ffffffffffffffffffffffffffffffffffffffff1673ffffffffffffffffffffffffffffffffffffffff1681526020019060010190808311610468575b5050505050905090565b600081815481106104c957fe5b906000526020600020016000915054906101000a900473ffffffffffffffffffffffffffffffffffffffff168156fea2646970667358221220683178587b9365ad9a2b124f852aa83df2fb932ebedc3d3ec3582ff9a67bb99b64736f6c63430007030033",
  "immutableReferences": {},
  "source": "pragma solidity ^0.7.3;\n\nimport \"./Proposal.sol\";\nimport \"@openzeppelin/contracts/token/ERC20/IERC20.sol\";\n\n// import \"https://github.com/OpenZeppelin/openzeppelin-contracts/blob/v3.1.0/contracts/token/ERC20/IERC20.sol\";\n\n// Proposal factory creates a new pool proposal by pool proposer\ncontract ProposalFactory {\n    address[] public deployedProposals;\n\n    function createProposal(\n        address admin,\n        address proposer,\n        address[] memory tokens,\n        uint256[] memory amounts,\n        uint256 startDate,\n        uint256 endDate,\n        uint256 period,\n        uint256 optionPrice,\n        uint256 optionPremium,\n        uint256 optionInterval,\n        uint256 commission,\n        string memory name,\n        string memory symbol,\n        address daiAddress\n    ) public {\n        // Proposal newProposal = new Proposal(\n        //     admin,\n        //     proposer,\n        //     tokens,\n        //     amounts,\n        //     startDate,\n        //     endDate,\n        //     period,\n        //     optionPrice,\n        //     optionPremium,\n        //     optionInterval,\n        //     commission,\n        //     name,\n        //     symbol,\n        //     daiAddress\n        // );\n        // deployedProposals.push(address(newProposal));\n    }\n\n    function getDeployedProposals() public view returns (address[] memory) {\n        return deployedProposals;\n    }\n}\n",
  "sourcePath": "/Users/Daniel/GoogleDrive/re-fungible/contracts/ProposalFactory.sol",
  "compiler": {
    "name": "solc",
    "version": "0.7.3+commit.9bfce1f6.Emscripten.clang"
  },
  "schemaVersion": "3.3.2",
  "updatedAt": "2020-12-12T06:32:05.365Z",
  "devdoc": {
    "kind": "dev",
    "methods": {},
    "version": 1
  },
  "userdoc": {
    "kind": "user",
    "methods": {},
    "version": 1
  }
}