{
  "contractName": "Shared",
  "abi": [
    {
      "inputs": [],
      "name": "poolTokenSupply",
      "outputs": [
        {
          "internalType": "uint256",
          "name": "",
          "type": "uint256"
        }
      ],
      "stateMutability": "view",
      "type": "function"
    },
    {
      "inputs": [],
      "name": "proposer",
      "outputs": [
        {
          "internalType": "address",
          "name": "",
          "type": "address"
        }
      ],
      "stateMutability": "view",
      "type": "function"
    }
  ],
  "bytecode": "0x60806040526001600d60006101000a81548160ff02191690831515021790555034801561002b57600080fd5b5060e78061003a6000396000f3fe6080604052348015600f57600080fd5b506004361060325760003560e01c8063a8e4fb90146037578063cd96f5d1146069575b600080fd5b603d6085565b604051808273ffffffffffffffffffffffffffffffffffffffff16815260200191505060405180910390f35b606f60ab565b6040518082815260200191505060405180910390f35b600460009054906101000a900473ffffffffffffffffffffffffffffffffffffffff1681565b6000548156fea2646970667358221220812448e61a38f5dff2b7d1b73c03c90ca6cff9b7b83cfb5f939c330dae06860164736f6c63430007030033",
  "immutableReferences": {},
  "source": "pragma solidity ^0.7.3;\nimport \"@openzeppelin/contracts/token/ERC20/ERC20.sol\";\n\n// import \"./Proposal.sol\";\n\ncontract Shared {\n    // uint256 poolPeriod;\n    uint256 public poolTokenSupply;\n    address admin;\n    IERC20 DAI;\n\n    // Proposal spec\n    // address[] tokenAddresses;\n    IERC20[] tokens;\n    address public proposer;\n    uint256[] amounts;\n    uint256 startDate;\n    uint256 endDate;\n    uint256 period;\n    uint256 optionPrice;\n    uint256 optionPremium;\n    uint256 optionInterval;\n    uint256 commission;\n    bool isOpen = true;\n\n    // option buyer list\n    address[] optionSellers;\n    address[] optionBuyers;\n    mapping(IERC20 => uint256) collectedAmountMap;\n\n    uint256 optionSellerTotalAmmount;\n\n    // Option buyer - Dai commit ratio\n    mapping(address => uint256) optionSellerPortionMap;\n\n    uint256 optionBuyerTotalAmmount;\n\n    // Option buyer - Dai commit ratio\n    mapping(address => uint256) optionBuyerPortionMap;\n\n    // option buyer - claimed amount\n    mapping(address => uint256) claimedPoolTokens;\n}\n",
  "sourcePath": "/Users/Daniel/GoogleDrive/re-fungible/contracts/Shared.sol",
  "compiler": {
    "name": "solc",
    "version": "0.7.3+commit.9bfce1f6.Emscripten.clang"
  },
  "schemaVersion": "3.3.2",
  "updatedAt": "2020-12-12T06:32:05.367Z",
  "devdoc": {
    "kind": "dev",
    "methods": {},
    "version": 1
  },
  "userdoc": {
    "kind": "user",
    "methods": {},
    "version": 1
  }
}